:020000040000FA
:1000000000060020F5000000F9000000FB000000E1
:10001000FD000000FF0000000101000000000000E2
:1000200000000000000000000000000003010000CC
:1000300005010000000000000701000009010000A8
:100040000B0100000B0100000B0100000B01000080
:100050000B0100000B0100000B0100000B01000070
:100060000B0100000B0100000B0100000B01000060
:100070000B0100000B0100000B0100000B01000050
:100080000B0100000B0100000B0100000B01000040
:100090000B0100000B0100000B0100000B01000030
:1000A0000B0100000B0100000B0100000B01000020
:1000B0000B0100000B0100000B0100000B01000010
:1000C0000B0100000B0100000B0100000B01000000
:1000D0000B0100000B0100000B0100000B010000F0
:1000E0000B0100000B0100000B0100000B010000E0
:1000F0000B01000008480047FEE7FEE7FEE7FEE7C9
:10010000FEE7FEE7FEE7FEE7FEE7FEE703480449F9
:10011000044A054B704700002D010000000000203C
:100120000006002000020020000200204FF00050D6
:1001300048656C6C6F20776F726C640A00000C4924
:1001400011F8012B00F8012B002AF9D14FF06C03B4
:100150004FF000054FF0005010F8014B002C05D077
:100160009C42FFD005F10105F6E7F5E7FEE7000048
:04017000300100005A
:040000050000012DC9
:00000001FF
