:020000040000FA
:1000000000020020450100004D0100004F010000EA
:1000100051010000530100005501000000000000E4
:100020000000000000000000000000005701000078
:1000300059010000000000005B0100005D010000AC
:100040005F0100005F0100005F0100005F01000030
:100050005F0100005F0100005F0100005F01000020
:100060005F0100005F0100005F0100005F01000010
:100070005F0100005F0100005F0100005F01000000
:100080005F0100005F0100005F0100005F010000F0
:100090005F0100005F0100005F0100005F010000E0
:1000A0005F0100005F0100005F0100005F010000D0
:1000B0005F0100005F0100005F0100005F010000C0
:1000C0005F0100005F0100005F0100005F010000B0
:1000D0005F0100005F0100005F0100005F010000A0
:1000E0005F010000000000000000000000000000B0
:1000F0000000000000000000000000000000000000
:1001000000000000000000000000000000000000EF
:1001100000000000000000000000000000000000DF
:1001200000000000000000000000000000000000CF
:1001300000000000000000000000000000000000BF
:10014000000000000948804709480047FEE7FEE735
:10015000FEE7FEE7FEE7FEE7FEE7FEE7FEE7FEE777
:1001600004480549034A054B704700008901000017
:10017000F501000000000020000200200000002027
:1001800070477047704700001548006840F47000E1
:10019000134908604FF4B540124908808020124985
:1001A000486146F65A10114908604FF48030091D25
:1001B0000860081D006820F00710C01C091D0860B9
:1001C00000200A4908600A48006920F03000084908
:1001D00008610846406920F030004861704700001F
:1001E00088ED00E00C480040003004E000040140CD
:1001F000001001404FF0FF31054A064B064C4FF00E
:100200001235064E671815EB020846EB030900008D
:1002100078563412320474322748156700237482EA
:04000005000001F501
:00000001FF
